:1000000045C0000062C0000060C000005EC000008B
:100010005CC000005AC0000058C0000056C000007C
:1000200054C0000051C3000050C000004EC000008A
:100030004CC000004AC0000048C0000046C000009C
:1000400044C0000042C0000040C000003EC00000AC
:100050003CC000003AC0000038C0000036C00000BC
:1000600034C0000032C0000030C000002EC00000CC
:100070002CC000002AC0000028C0000026C00000DC
:1000800024C0000022C0000020C0000011241FBEB8
:10009000CFEFD0E4DEBFCDBF15E0A0E0B1E0ECE6ED
:1000A000F9E100E00BBF02C007900D92A035B10747
:1000B000D9F725E0A0E5B5E001C01D92A53AB20749
:1000C000E1F70E94E8090C94B40C9ACFCF93DF9328
:1000D0001F92CDB7DEB7898389818130E1F081EC51
:1000E00090E021EC30E0F90120812861FC012083BF
:1000F00082EC90E022EC30E0F90120812660FC01E6
:10010000208384EC90E02FECFC01208385EC90E0D0
:10011000FC0110821BC089EC90E029EC30E0F90171
:1001200020812861FC0120838AEC90E02AEC30E0F9
:10013000F90120812660FC0120838CEC90E02FECFB
:10014000FC0120838DEC90E0FC01108200000F90F8
:10015000DF91CF910895CF93DF931F92CDB7DEB794
:1001600089838981813031F080EC90E0FC018081CD
:10017000807205C088EC90E0FC01808180720F9055
:10018000DF91CF910895CF93DF931F92CDB7DEB764
:1001900089838981813031F080EC90E0FC0180819D
:1001A000807405C088EC90E0FC01808180740F9021
:1001B000DF91CF910895CF93DF931F92CDB7DEB734
:1001C000898389818130E1F080915A05882359F42F
:1001D00080915A058823A1F406C086EC90E0FC01CA
:1001E000808180935A0580EC90E0FC018081882317
:1001F000A4F30CC08EEC90E0FC01808180935A0542
:1002000088EC90E0FC0180818823A4F300000F902B
:10021000DF91CF910895CF93DF9300D0CDB7DEB7B4
:1002200089836A838A81813089F0000080EC90E0C4
:10023000FC018081882F90E080729927892BB1F38F
:1002400086EC90E02981FC01208310C0000088EC3E
:1002500090E0FC018081882F90E080729927892BA3
:10026000B1F38EEC90E02981FC01208300000F9017
:100270000F90DF91CF910895CF93DF93CDB7DEB785
:100280008AE790E02AE730E0F9012081206CFC0148
:10029000208310926B0510926A0510925D051092F2
:1002A0005C050000DF91CF9108952F923F924F920D
:1002B0005F926F927F928F929F92AF92BF92CF92F6
:1002C000DF92EF92FF920F931F93CF93DF93CDB7FF
:1002D000DEB7AF970FB6F894DEBF0FBECDBF2AE7EB
:1002E00030E08AE790E0FC0180818064F90180833E
:1002F00000008AE790E0FC018081882F90E0807404
:100300009927892BB1F788E790E0FC0180819181E2
:1003100090936B0580936A052CE730E08CE790E0C2
:10032000FC0180818160F90180832AE730E08AE75F
:1003300090E0FC0180818064F901808300008AE7FD
:1003400090E0FC018081882F90E080749927892BB0
:10035000B1F788E790E0FC018081918190935D0581
:1003600080935C052CE730E08CE790E0FC01808115
:100370008E7FF901808380916A0590916B05805F83
:10038000914090936B0580936A0580915C059091F4
:100390005D058C50924090935D0580935C05809143
:1003A0006A0590916B05998B888B892F880F880B34
:1003B0008A8B8B8B8C8B8D8B8E8B8F8B80916A0530
:1003C00090916B051C01892F880F880B482E582EA1
:1003D000682E782E882E982EA22CB32CC42CD52CC7
:1003E000E62CF72C082D192D288939894A895B8933
:1003F0006C897D898E899F890E942A0BA22EB32E3B
:10040000C42ED52EE62EF72E082F192FA88EB98EC2
:10041000CA8EDB8EEC8EFD8E0E8F1F8F80915C0559
:1004200090915D0599A388A3892F880F880B8AA3D3
:100430008BA38CA38DA38EA38FA380915C05909139
:100440005D0599A788A7892F880F880B8AA78BA796
:100450008CA78DA78EA78FA7A8A4B9A4CAA4DBA434
:10046000ECA4FDA40EA51FA528A139A14AA15BA15A
:100470006CA17DA18EA19FA10E942A0BA22EB32E5A
:10048000C42ED52EE62EF72E082F192F2A2C3B2C02
:100490004C2C5D2C6E2C7F2C802E912E288D398D2E
:1004A0004A8D5B8D6C8D7D8D8E8D9F8DA22CB32C96
:1004B000C42CD52CE62CF72C082D192D0E947B0B73
:1004C000A22EB32EC42ED52EE62EF72E082F192FCE
:1004D0002A2D3B2D4C2D5D2D6E2D7F2D802F912FA4
:1004E0002F3F3F4F4105510561057105810591057C
:1004F00009F01CF410929E0561C081E08C8382E0BB
:100500008D8383E08E8384E08F8380916A05909150
:100510006B059987888780916A0590916B05919505
:10052000819591099B878A8780915C0590915D05F3
:100530009D878C8780915C0590915D059195819553
:1005400091099F878E87198281E090E09B838A833F
:1005500025C08A819B81880F991F9E012F5F3F4F85
:10056000820F931F0796FC01208131818981882F9A
:1005700090E0880F991FAE014F5F5F4F840F951F6A
:100580000796FC01808191818217930714F48A8178
:1005900089838A819B8101969B838A838A819B813F
:1005A0000497BCF28981882F90E09E012C5F3F4F19
:1005B000820F931FFC01808180939E05AF960FB63A
:1005C000F894DEBF0FBECDBFDF91CF911F910F9189
:1005D000FF90EF90DF90CF90BF90AF909F908F9063
:1005E0007F906F905F904F903F902F900895CF93A2
:1005F000DF9300D000D0CDB7DEB769837A838B83D9
:100600009C8389819A81AB81BC8180930601909300
:100610000701A0930801B093090180910601909110
:100620000701A0910801B0910901809351059093B1
:100630005205A0935305B093540500000F900F90FE
:100640000F900F90DF91CF910895CF93DF93CDB7A7
:10065000DEB781EB90E02BE0FC01208383EB90E0A0
:100660002DE7FC01208380E790E022E0FC0120835D
:1006700082EB90E0FC0110828091060190910701CD
:10068000A0910801B0910901809351059093520502
:10069000A0935305B09354058FE590E02FE530E02B
:1006A000F90120812068FC0120830000DF91CF91B7
:1006B0000895CF93DF93CDB7DEB781E080935005E7
:1006C0000000DF91CF9108951F920F9200905F007C
:1006D0000F92112400905B000F922F933F934F9342
:1006E0005F936F937F938F939F93AF93BF93EF939A
:1006F000FF93CF93DF93CDB7DEB7809151059091F3
:100700005205A0915305B09154050197A109B10973
:100710008093510590935205A0935305B0935405CF
:100720008091510590915205A0915305B0915405C7
:10073000892B8A2B8B2B89F4BCDF80910601909149
:100740000701A0910801B091090180935105909390
:100750005205A0935305B09354050000DF91CF914B
:10076000FF91EF91BF91AF919F918F917F916F9189
:100770005F914F913F912F910F9000925B000F90EE
:1007800000925F000F901F901895CF93DF9300D0D9
:100790001F92CDB7DEB78B8386E090E0C4D79A83F3
:1007A00089838B81882F90E0BED79C0189819A81B3
:1007B000FC013183208389819A81FC011282898125
:1007C0009A81FC01138289819A81FC0114828981BA
:1007D0009A812B81FC01258389819A810F900F904A
:1007E0000F90DF91CF910895CF93DF9300D0CDB7D5
:1007F000DEB79A83898389819A81FC01948181E0A3
:10080000992309F080E00F900F90DF91CF91089528
:10081000CF93DF9300D0CDB7DEB79A8389838981E8
:100820009A81FC01128289819A81FC01138289815B
:100830009A81FC01148200000F900F90DF91CF91FC
:100840000895CF93DF9300D01F92CDB7DEB79A8380
:1008500089836B8389819A81FC01248189819A81B2
:10086000FC0185812817B8F589819A81FC012081D6
:10087000318189819A81FC018381882F90E0820FE8
:10088000931F2B81FC01208389819A81FC01838144
:1008900021E0280F89819A81FC01238389819A8133
:1008A000FC01238189819A81FC019581822F692F26
:1008B000C5D6892F282F89819A81FC0123838981BC
:1008C0009A81FC01848121E0280F89819A81FC01B1
:1008D000248380E001C081E00F900F900F90DF91A2
:1008E000CF910895CF93DF9300D01F92CDB7DEB79D
:1008F0009B838A838A819B81FC018481882309F4FC
:1009000046C08A819B81FC01208131818A819B8143
:10091000FC018281882F90E0820F931FFC0180816F
:1009200089838A819B81FC01208131818A819B811D
:10093000FC018281882F90E0820F931FFC011082BE
:100940008A819B81FC01828121E0280F8A819B8121
:10095000FC0122838A819B81FC0122818A819B8107
:10096000FC019581822F692F69D6892F282F8A81D2
:100970009B81FC0122838A819B81FC0184812FEF72
:10098000280F8A819B81FC012483898101C080E03A
:100990000F900F900F90DF91CF910895CF93DF9339
:1009A000CDB7DEB78AE790E025E8FC01208380E838
:1009B00090E020E830E0F9012081226AFC012083E8
:1009C00081E890E021E830E0F90120812B61FC0111
:1009D000208386E890E027E833E1FC01318320831F
:1009E0008AE290E02AE230E0F90120812063FC01F4
:1009F00020838CE790E0FC0110828AE790E02AE7F0
:100A000030E0F90120812064FC01208300008AE7A6
:100A100090E0FC018081882F90E080749927892BD9
:100A2000B1F788E890E020E530E0FC0131832083D5
:100A30000000DF91CF910895CF93DF93CDB7DEB75C
:100A40008AE790E025E8FC01208380E890E020E838
:100A500030E0F9012081226AFC01208381E890E0E6
:100A600021E830E0F90120812B61FC01208386E838
:100A700090E027E833E1FC01318320838AE290E0B3
:100A80002AE230E0F90120812063FC0120838CE719
:100A900090E0FC0110828AE790E02AE730E0F9015B
:100AA00020812064FC01208300008AE790E0FC01A3
:100AB0008081882F90E080749927892BB1F788E88E
:100AC00090E024EF31E0FC01318320830000DF91CE
:100AD000CF910895CF93DF93CDB7DEB78AE790E04B
:100AE00025E8FC01208380E890E020E830E0F9016F
:100AF0002081226AFC01208381E890E021E830E037
:100B0000F90120812B61FC01208386E890E027E831
:100B100033E1FC01318320838AE290E02AE230E075
:100B2000F90120812063FC0120838CE790E0FC0127
:100B300010828AE790E02AE730E0F9012081206402
:100B4000FC01208300008AE790E0FC018081882F6F
:100B500090E080749927892BB1F788E890E024EB26
:100B600030E0FC01318320830000DF91CF910895B4
:100B7000CF93DF9300D0CDB7DEB79A83898300008F
:100B800089819A810F900F90DF91CF910895CF9333
:100B9000DF9300D01F92CDB7DEB79B838A8380E2BC
:100BA00090E0FC018081809589838A819B818130DE
:100BB000910509F18230910589F1892B09F056C020
:100BC0008981882F90E084709927892B31F082DF0A
:100BD00080910A058093550544C08981882F90E053
:100BE00088709927892B09F43CC08FEF80930A0500
:100BF0001092550536C010929D0510928505898189
:100C0000882F90E084709927892B69F163DF1B821C
:100C10001A8280910A058093550525C010929D0582
:100C2000109285058981882F90E084709927892BFF
:100C3000E1F050DF1B821A8280910A05082E000C19
:100C4000990B019687709078992324F40197886F07
:100C50009F6F019680930A0580910A058093550540
:100C600004C0000003C0000001C000008A819B8115
:100C70000F900F900F90DF91CF910895CF93DF9356
:100C800000D000D0CDB7DEB79A8389837C836B8395
:100C90008B819C81FC01808121E0280F8B819C81CC
:100CA000FC0120838B819C81FC0180818F708823D3
:100CB000A1F48B819C81FC018081282F2F708B8176
:100CC0009C81FC01208389819A81FC01808121E043
:100CD000280F89819A81FC01208389819A81FC01F6
:100CE0008081882349F089819A81FC018081877005
:100CF000882311F480E001C081E00F900F900F90E5
:100D00000F90DF91CF910895CF93DF9300D0CDB7AF
:100D1000DEB79A83898389819A81009719F00197B8
:100D200061F1FFC0809155058F3F09F4F9C0109221
:100D30005B05109279051092560510925705109296
:100D4000770510929D051092850580919F059091E1
:100D5000A0055EDD81E090E09A838983000080E059
:100D6000FAD98823E1F360E080E055DA000080E002
:100D70000ADA8823E1F30000D3C000008091550512
:100D8000482F880F550B80915B05282F30E080910C
:100D90007905882F90E0440F551F440F551F440FCD
:100DA000551F240F351F22953295307F3227207F23
:100DB0003227820F931F865F9E4FFC01808188231C
:100DC00039F469E775E08BE595E058DF8823B1F6E3
:100DD00080915B058823D1F080915B058770882323
:100DE000A9F481E08093770581E08093850581E017
:100DF00080939D0510927A058091550580930A0590
:100E00008FEF809355051A8219828BC0000080E015
:100E1000A2D98823E1F380915505482F880F550BFF
:100E200080915B05282F30E080917905882F90E034
:100E3000440F551F440F551F440F551F240F351FD6
:100E400022953295307F3227207F3227820F931FE1
:100E5000865F9E4FFC018081882F90E0880F991F4C
:100E600082959295907F9827807F9827826060E096
:100E7000D2D9000080E087D98823E1F30000000088
:100E800080E069D98823E1F380917905880F60E0DB
:100E9000C2D9000080E077D98823E1F30000000088
:100EA00080E059D98823E1F380915B05880F60E0E9
:100EB000B2D9000080E067D98823E1F30000809177
:100EC0005505482F880F550B80915B05282F30E082
:100ED00080917905882F90E0440F551F440F551FCE
:100EE000440F551F240F351F22953295307F32272E
:100EF000207F3227820F931F865F9E4FFC018081E7
:100F0000833041F480915B0580935605809179058B
:100F10008093570569E775E08BE595E0AFDE01C08A
:100F2000000089819A810F900F90DF91CF910895F1
:100F3000CF93DF9300D0CDB7DEB79A8389838981C1
:100F40009A81009719F0019791F01BC080919E053E
:100F50008823A1F020919E0580919F059091A00586
:100F6000622F6FDC81E090E09A83898307C08091D3
:100F70009E05882329F41A82198202C0000001C04C
:100F8000000089819A810F900F90DF91CF91089591
:100F9000CF93DF9300D000D01F92CDB7DEB79D83F3
:100FA0008C838C819D8181309105A9F082309105DF
:100FB00009F44DC0892B09F001C210925805109216
:100FC000590580919F059091A00522DC81E090E079
:100FD0009D838C83F3C180919F059091A00504DCD3
:100FE000882309F0E6C182E090E09D838C838091A4
:100FF0009F059091A00576DC809378058091780517
:10100000833031F4109258058FEF80935905D1C188
:1010100080917805843031F41092580581E08093F6
:101020005905C7C180917805823031F481E0809301
:10103000580510925905BDC180917805813009F09D
:10104000B8C18FEF8093580510925905B2C18091B5
:10105000560590915805890F8A8380915705909184
:101060005905890F8B8380910A05482F880F550BEE
:101070008A81282F880F330B8B81082E000C990B47
:10108000440F551F440F551F440F551F240F351F84
:1010900022953295307F3227207F3227820F931F8F
:1010A000865F9E4FFC01808189838981823021F097
:1010B0008981843009F04CC081E090E09D838C836D
:1010C00080915905813069F0809159058F3F49F031
:1010D00080915805813029F0809158058F3F09F0A3
:1010E0006AC18981843009F066C181E080936C0512
:1010F000000080E030D88823E1F360E084E08BD802
:10110000000080E040D88823E1F30000000080E088
:1011100022D88823E1F380915705880F60E07BD8BF
:10112000000080E030D88823E1F30000000080E078
:1011300012D88823E1F380915605880F60E06BD8C0
:10114000000080E020D88823E1F3000027DC33C1D1
:10115000000080E000D88823E1F360E082E05BD803
:10116000000080E010D88823E1F30000000080E058
:101170000E94AB008823D9F380915705880F60E067
:101180004AD8000080E00E94C3008823D9F3000001
:10119000000080E00E94AB008823D9F380915605BF
:1011A000880F60E038D8000080E00E94C3008823E8
:1011B000D9F300008A81809356058B81809357056F
:1011C000000080E00E94AB008823D9F360E082E653
:1011D00022D8000080E00E94C3008823D9F30000D9
:1011E000000080E00E94AB008823D9F3809157056E
:1011F000880F60E010D8000080E00E94C3008823C0
:10120000D9F30000000080E00E94AB008823D9F3EE
:1012100080915605880F60E00E940B01000080E07D
:101220000E94C3008823D9F30000809156058830BE
:1012300028F480915705803108F456C081E08093EE
:101240006C05000080E00E94AB008823D9F360E0C9
:1012500084E00E940B01000080E00E94C30088230C
:10126000D9F30000000080E00E94AB008823D9F38E
:1012700080915705282F30E080915905082E000CE9
:10128000990BA901481B590BCA01880F60E00E9405
:101290000B01000080E00E94C3008823D9F3000006
:1012A000000080E00E94AB008823D9F380915605AE
:1012B000282F30E080915805082E000C990BF90179
:1012C000E81BF90BCF01880F60E00E940B010000C2
:1012D00080E00E94C3008823D9F300005FDB81E037
:1012E00090E09D838C8363C080910A05482F880F0E
:1012F000550B80915605282F30E080915705882F97
:1013000090E0440F551F440F551F440F551F240FE5
:10131000351F22953295307F3227207F3227820F6A
:10132000931F865F9E4FFC018081813009F045C08C
:1013300082E080936C05000080E00E94AB0088236F
:10134000D9F360E085E00E940B01000080E00E947C
:10135000C3008823D9F30000000080E00E94AB00A6
:101360008823D9F380915705880F60E00E940B0114
:10137000000080E00E94C3008823D9F30000000031
:1013800080E00E94AB008823D9F380915605880F36
:1013900060E00E940B01000080E00E94C3008823EF
:1013A000D9F3000049DB81E090E09D838C8300004D
:1013B00004C0000003C0000001C000008C819D81BA
:1013C0000F900F900F900F900F90DF91CF91089595
:1013D0000F931F93CF93DF93CDB7DEB72C970FB644
:1013E000F894DEBF0FBECDBF81E290E0FC01108219
:1013F00082E290E02FEFFC0120838AE290E02FEF61
:10140000FC0120838BE290E0FC0110828CE0EBE099
:10141000F5E0A6E8B5E001900D928A95E1F78CE041
:10142000E7E1F5E0ACE6B5E001900D928A95E1F7D1
:101430008CE0E3E2F5E0A2E9B5E001900D928A9537
:10144000E1F78CE0EFE2F5E0AEE5B5E001900D925A
:101450008A95E1F78CE0EBE3F5E0AAE7B5E00190CF
:101460000D928A95E1F788E0E7E4F5E0DE01159654
:1014700001900D928A95E1F781E090E09C838B8347
:101480008B819C81CC01A0E0B0E0BC01CD01AFD844
:10149000DCD880E00E94660080E00E94DB000E94B1
:1014A0003C018AE072D99093A00580939F050E9429
:1014B00055011A821982B5C089819A81880F991FB6
:1014C0009E012F5F3F4F820F931F0496FC01808186
:1014D0009181FC018385882309F49DC089819A81CB
:1014E000880F991F9E012F5F3F4F820F931F049615
:1014F000FC0180819181FC012581368147815085E5
:1015000089819A81880F991FBE016F5F7F4F860F77
:10151000971F0496FC0180819181FC018181928159
:10152000A381B481281739074A075B0708F445C02F
:1015300089819A81880F991F9E012F5F3F4F820FEB
:10154000931F0496FC0180819181FC011582168213
:101550001782108689819A81880F991F9E012F5FBB
:101560003F4F820F931F0496FC01008111818981F6
:101570009A81880F991F9E012F5F3F4F820F931F03
:101580000496FC0180819181FC012185328589814D
:101590009A81880F991FAE014F5F5F4F840F951F8F
:1015A0000496FC0180819181FC018081082E000C51
:1015B000990BF9010995F801808389819A81880F37
:1015C000991F9E012F5F3F4F820F931F0496FC01CE
:1015D0006081718189819A81880F991F9E012F5F97
:1015E0003F4F820F931F0496FC0180819181FC0183
:1015F00025813681478150858B819C81CC01A0E07B
:10160000B0E0820F931FA41FB51FFB018583968353
:10161000A783B08701C0000089819A8101969A83CF
:10162000898389819A8104970CF446CF00008091C8
:1016300050058823E1F31092500539CF991B79E0CA
:1016400004C0991F961708F0961B881F7A95C9F752
:1016500080950895DF93CF931F930F939A9DF02D5C
:10166000219FF00D8B9DF00D8A9DE02DF10D039FC4
:10167000F00D029FE00DF11D4E9DE00DF11D5E9DF0
:10168000F00D4F9DF00D7F936F93BF92AF925F93DC
:101690004F93D50139D08B01AC01D70135D0EB0187
:1016A000E80FF91FD6011FD02F913F91D6012CD002
:1016B000C60FD71FE81FF91FAF91BF9114D02F910C
:1016C0003F9122D0C60FD71FE81FF91FD6011CD0AB
:1016D000E60FF71F9801BE01CF0111240F911F9152
:1016E000CF91DF91089510D0460F571FC81FD91F03
:1016F00008F4319608952A0D3B1D4C1D5D1D6E1D8D
:101700007F1D801F911F0895A29FB001B39FC0014C
:10171000A39F700D811D1124911DB29F700D811D1D
:101720001124911D08950F931F93CF93DF9382305F
:10173000910510F482E090E0E091A305F091A405FA
:1017400020E030E0A0E0B0E0309719F14081518115
:101750000281138148175907C8F08417950769F467
:10176000109731F012960C93129713961C9327C082
:101770000093A3051093A40522C02115310519F08B
:101780004217530718F49A01BD01EF01DF01F80178
:10179000DBCF21153105F9F0281B390B2430310539
:1017A00080F48A819B816115710521F0FB0193838F
:1017B000828304C09093A4058093A305FE01329612
:1017C00044C0FE01E20FF31F81939193225031092F
:1017D000398328833AC02091A1053091A205232B9B
:1017E00041F420910201309103013093A20520932E
:1017F000A10520910001309101012115310541F42D
:101800002DB73EB74091040150910501241B350BC3
:10181000E091A105F091A205E217F307A0F42E1BB9
:101820003F0B2817390778F0AC014E5F5F4F241744
:10183000350748F04E0F5F1F5093A2054093A10556
:101840008193919302C0E0E0F0E0CF01DF91CF916E
:101850001F910F910895CF93DF93009709F481C0F2
:10186000FC01329713821282A091A305B091A405C6
:10187000109781F420813181820F931F2091A1055F
:101880003091A2052817390751F5F093A205E0938E
:10189000A10567C0ED0120E030E0CE17DF0740F47E
:1018A0004A815B819E0141155105F1F0EA01F5CFB6
:1018B000D383C28340815181840F951FC817D907F4
:1018C00059F488819981840F951F029691838083B2
:1018D0008A819B81938382832115310529F4F093BA
:1018E000A405E093A3053DC0E901FB83EA83499188
:1018F0005991C40FD51FEC17FD0761F480819181C8
:10190000840F951F0296E9019983888382819381D0
:101910009B838A83E0E0F0E012968D919C9113976F
:10192000009719F0FD01DC01F7CF8D919C91119783
:101930009D012E5F3F4F820F931F2091A105309193
:10194000A2052817390769F4309729F41092A405E5
:101950001092A30502C013821282B093A205A09335
:0C196000A105DF91CF910895F894FFCF0E
:10196C000000A505200001000000000000000000A0
:10197C000000000000000000000000000200000257
:10198C000000010000000000000300000200000243
:10199C000000000000000000000000000200000237
:1019AC000000000000000000000000000202020223
:1019BC000000020000000000000000000200000215
:1019CC000000020000000000000000000200000205
:1019DC0000000200000000000000000002000002F5
:1019EC0000000200000000000000000000020000E7
:1019FC0000000002000000000003000000000000D6
:101A0C0000000002000000000000000000000000C8
:101A1C0000000000000000000000000000000000BA
:101A2C0000000000000000020000000002000000A6
:101A3C00000000000000000000000000000000009A
:101A4C000000010400000000020000000000000083
:101A5C000000000002000000000000000000000078
:101A6C000000000000000000000200000200000066
:101A7C000000000002000000000300020000000053
:101A8C00000000000000000000000000000000004A
:101A9C000002000000000000020000000000000036
:101AAC000000000000000000000002000000000028
:101ABC000000000000000000020000000000040014
:101ACC000100040000020000000000020000000001
:101ADC0000000000000000000000000000000000FA
:101AEC0000000000040000020004000200020002DA
:101AFC0000000000000000000003020000000000D5
:101B0C0000000200000200000000000000000000C5
:101B1C0000000004000000000200000002000000B1
:101B2C0000000200020000000000020000000000A3
:101B3C00000000040000000000020004010002008C
:101B4C000000000000020000000000020000000085
:101B5C00000200000000000002000000000400026F
:101B6C000000000000020402000000020002000459
:101B7C00000200000000020000030000000202004E
:101B8C000000000400000000000002000000000043
:101B9C000200000000020000000000020000000231
:101BAC000000000000000002000001000004000022
:101BBC000000020000000000000200000002000013
:101BCC000000000200000000000002000000020003
:101BDC0000040000000002000000000002000000F1
:101BEC0002000000020000000200000000000000E3
:101BFC0000000200020202020203000002000200C6
:101C0C0000000002020000000200000002000200BE
:101C1C0000000000020002000200000000000000B2
:101C2C0000000000020002000200020000000000A0
:101C3C00020000000200020002000002000000028C
:101C4C00000000020200020002000000020202007A
:101C5C000102000000000200000000000000000073
:101C6C00000000020202020202020000000000005A
:101C7C000000000000000000000000000000000058
:101C8C000000000000000000000000000000000048
:101C9C000000000000000000000000000000000038
:101CAC000000000000000000000000000000000028
:101CBC000000000000000000000000000000000018
:101CCC000000000000000000000000000000000008
:101CDC0000000000000000000000000000000000F8
:101CEC0000000000000000000000000000000000E8
:101CFC0000000000000000000000000000000000D8
:101D0C0000000000000000000000000000000000C7
:101D1C0000000000000000000000000000000000B7
:101D2C0000000000000000000000000000000000A7
:101D3C000000000000000000000000000000000097
:101D4C000000000000000000000000000000000087
:101D5C000000000000000000000000000000000077
:101D6C0000000000000000000000FF00190000004F
:101D7C0019000000B805000019000000190000004F
:101D8C00C7050000190000001900000098070000AA
:101D9C0032000000320000008406010164000000E3
:101DAC0064000000C8070092057A055E056C05000A
:00000001FF
